:020000040800F2
:100000000050002089230008851800088B1800087C
:1000100091180008971800089D18000800000000BB
:10002000000000000000000000000000A31800080D
:10003000AF18000800000000BB180008C71800082F
:10004000D1230008D1230008D1230008D1230008C0
:10005000D1230008D1230008D1230008D1230008B0
:10006000D1230008D1230008D1230008D1230008A0
:10007000D1230008D1230008D1230008D123000890
:10008000D1230008D1230008D1230008D123000880
:10009000D1230008D1230008D1230008D123000870
:1000A000D1230008D5180008D1230008D123000867
:1000B000E9180008FD180008D123000811190008EC
:1000C000D1230008D1230008D1230008D123000840
:1000D000D12300082519000839190008D123000888
:1000E000D1230008D1230008D1230008000000001C
:1000F0000000000000000000000000000000000000
:0C01000000000000000000005FF808F1A3
:1001100010B5054C237833B9044B13B10448AFF341
:1001200000800123237010BDE001002000000000CA
:1001300058C1000808B5034B1BB103490348AFF38E
:10014000008008BD00000000E401002058C1000844
:10015000034613F8012B002AFBD1181A0138704707
:1001600081F0004102E000BF83F0004330B54FEA68
:1001700041044FEA430594EA050F08BF90EA020FD5
:100180001FBF54EA000C55EA020C7FEA645C7FEA68
:10019000655C00F0E2804FEA5454D4EB5555B8BF8B
:1001A0006D420CDD2C4480EA020281EA030382EAFC
:1001B000000083EA010180EA020281EA0303362D8E
:1001C00088BF30BD11F0004F4FEA01314FF4801C61
:1001D0004CEA113102D0404261EB410113F0004F73
:1001E0004FEA03334CEA133302D0524263EB43032A
:1001F00094EA050F00F0A780A4F10104D5F1200EC8
:100200000DDB02FA0EFC22FA05F2801841F1000122
:1002100003FA0EF2801843FA05F359410EE0A5F1F6
:1002200020050EF1200E012A03FA0EFC28BF4CF027
:10023000020C43FA05F3C01851EBE37101F00045DD
:1002400007D54FF0000EDCF1000C7EEB00006EEBEA
:100250000101B1F5801F1BD3B1F5001F0CD3490874
:100260005FEA30004FEA3C0C04F101044FEA4452CB
:1002700012F5800F80F09A80BCF1004F08BF5FEA52
:10028000500C50F1000041EB045141EA050130BD32
:100290005FEA4C0C404141EB0101013C28BFB1F544
:1002A000801FE9D291F0000F04BF01460020B1FA8F
:1002B00081F308BF2033A3F10B03B3F120020CDA62
:1002C0000C3208DD02F1140CC2F10C0201FA0CF040
:1002D00021FA02F10CE002F11402D8BFC2F1200CA5
:1002E00001FA02F120FA0CFCDCBF41EA0C0190405B
:1002F000E41AA2BF01EB0451294330BD6FEA0404A4
:100300001F3C1CDA0C340EDC04F11404C4F120028E
:1003100020FA04F001FA02F340EA030021FA04F3A0
:1003200045EA030130BDC4F10C04C4F1200220FAF7
:1003300002F001FA04F340EA0300294630BD21FA35
:1003400004F0294630BD94F0000F83F4801306BFFB
:1003500081F480110134013D4EE77FEA645C18BFEF
:100360007FEA655C29D094EA050F08BF90EA020F86
:1003700005D054EA000C04BF1946104630BD91EA7E
:10038000030F1EBF0021002030BD5FEA545C05D181
:100390004000494128BF41F0004130BD14F58004C0
:1003A0003CBF01F5801130BD01F0004545F0FE4134
:1003B00041F470014FF0000030BD7FEA645C1ABF69
:1003C000194610467FEA655C1CBF0B46024650EAA0
:1003D000013406BF52EA033591EA030F41F40021CC
:1003E00030BD00BF90F0000F04BF0021704730B552
:1003F0004FF4806404F132044FF000054FF0000127
:1004000050E700BF90F0000F04BF0021704730B5E7
:100410004FF4806404F1320410F0004548BF4042BC
:100420004FF000013EE700BF42004FEAE2014FEA11
:1004300031014FEA02701FBF12F07F4393F07F4FEC
:1004400081F06051704732F07F4208BF704793F0EF
:100450007F4F04BF41F40021704730B54FF4607402
:1004600001F0004521F000411CE700BF50EA010205
:1004700008BF704730B54FF000050AE050EA0102AE
:1004800008BF704730B511F0004502D5404261EB1E
:1004900041014FF4806404F132045FEA915C3FF45F
:1004A000D8AE4FF003025FEADC0C18BF03325FEAFC
:1004B000DC0C18BF033202EBDC02C2F1200300FAAD
:1004C00003FC20FA02F001FA03FE40EA0E0021FAD2
:1004D00002F11444BDE600BF70B54FF0FF0C4CF4C0
:1004E000E06C1CEA11541DBF1CEA135594EA0C0F72
:1004F00095EA0C0F00F0DEF82C4481EA030621EAAD
:100500004C5123EA4C5350EA013518BF52EA0335E7
:1005100041F4801143F4801338D0A0FB02CE4FF099
:100520000005E1FB02E506F00042E0FB03E54FF0C9
:100530000006E1FB03569CF0000F18BF4EF0010EC1
:10054000A4F1FF04B6F5007F64F5407404D25FEABD
:100550004E0E6D4146EB060642EAC62141EA555170
:100560004FEAC52040EA5E504FEACE2EB4F1FD0CB2
:1005700088BFBCF5E06F1ED8BEF1004F08BF5FEA30
:10058000500E50F1000041EB045170BD06F00046E2
:1005900046EA010140EA020081EA0301B4EB5C048F
:1005A000C2BFD4EB0C0541EA045170BD41F4801187
:1005B0004FF0000E013C00F3AB8014F1360FDEBFAC
:1005C000002001F0004170BDC4F10004203C35DA88
:1005D0000C341BDC04F11404C4F1200500FA05F30B
:1005E00020FA04F001FA05F240EA020001F00042AC
:1005F00021F0004110EBD37021FA04F642EB060122
:100600005EEA430E08BF20EAD37070BDC4F10C044B
:10061000C4F1200500FA04F320FA05F001FA04F20F
:1006200040EA020001F0004110EBD37041F10001FB
:100630005EEA430E08BF20EAD37070BDC4F1200506
:1006400000FA05F24EEA020E20FA04F301FA05F26E
:1006500043EA020321FA04F001F0004121FA04F216
:1006600020EA020000EBD3705EEA430E08BF20EAE6
:10067000D37070BD94F0000F0FD101F00046400020
:1006800041EB010111F4801F08BF013CF7D041EAA2
:10069000060195F0000F18BF704703F000465200A6
:1006A00043EB030313F4801F08BF013DF7D043EA77
:1006B0000603704794EA0C0F0CEA135518BF95EA2D
:1006C0000C0F0CD050EA410618BF52EA4306D1D1B4
:1006D00081EA030101F000414FF0000070BD50EAD3
:1006E000410606BF1046194652EA430619D094EA5D
:1006F0000C0F02D150EA013613D195EA0C0F05D147
:1007000052EA03361CBF104619460AD181EA03019A
:1007100001F0004141F0FE4141F470014FF0000052
:1007200070BD41F0FE4141F4780170BD70B54FF0ED
:10073000FF0C4CF4E06C1CEA11541DBF1CEA13556D
:1007400094EA0C0F95EA0C0F00F0A7F8A4EB05044F
:1007500081EA030E52EA03354FEA013100F0888046
:100760004FEA03334FF0805545EA131343EA12630F
:100770004FEA022245EA111545EA10654FEA0026C4
:100780000EF000419D4208BF964244F1FD0404F57D
:10079000407402D25B084FEA3202B61A65EB0305D9
:1007A0005B084FEA32024FF480104FF4002CB6EB96
:1007B000020E75EB030E22BFB61A754640EA0C0016
:1007C0005B084FEA3202B6EB020E75EB030E22BF56
:1007D000B61A754640EA5C005B084FEA3202B6EB97
:1007E000020E75EB030E22BFB61A754640EA9C0056
:1007F0005B084FEA3202B6EB020E75EB030E22BF26
:10080000B61A754640EADC0055EA060E18D04FEAE3
:10081000051545EA16754FEA06164FEAC30343EA83
:1008200052734FEAC2025FEA1C1CC0D111F4801F50
:100830000BD141EA00014FF000004FF0004CB6E749
:1008400011F4801F04BF01430020B4F1FD0C88BFE8
:10085000BCF5E06F3FF6AFAEB5EB030C04BFB6EBF3
:10086000020C5FEA500C50F1000041EB045170BDE6
:100870000EF0004E4EEA113114EB5C04C2BFD4EB13
:100880000C0541EA045170BD41F480114FF0000E97
:10089000013C90E645EA060E8DE60CEA135594EA13
:1008A0000C0F08BF95EA0C0F3FF43BAF94EA0C0F16
:1008B0000AD150EA01347FF434AF95EA0C0F7FF48B
:1008C00025AF104619462CE795EA0C0F06D152EADF
:1008D00003353FF4FDAE1046194622E750EA4106C3
:1008E00018BF52EA43067FF4C5AE50EA41047FF4D4
:1008F0000DAF52EA43057FF4EBAE12E74FF0FF3C39
:1009000006E000BF4FF0010C02E000BF4FF0010C09
:100910004DF804CD4FEA410C7FEA6C5C4FEA430C82
:1009200018BF7FEA6C5C1BD001B050EA410C0CBFD1
:1009300052EA430C91EA030F02BF90EA020F002033
:10094000704710F1000F91EA030F58BF994208BF9A
:1009500090422CBFD8176FEAE37040F00100704757
:100960004FEA410C7FEA6C5C02D150EA013C07D1AE
:100970004FEA430C7FEA6C5CD6D152EA033CD3D0F9
:100980005DF8040B704700BF8446104662468C46F3
:100990001946634600E000BF01B5FFF7B7FF002826
:1009A00048BF10F1000F01BD4DF808EDFFF7F4FF4F
:1009B0000CBF012000205DF808FB00BF4DF808EDDA
:1009C000FFF7EAFF34BF012000205DF808FB00BFFD
:1009D0004DF808EDFFF7E0FF94BF012000205DF81F
:1009E00008FB00BF4DF808EDFFF7CEFF94BF0120D4
:1009F00000205DF808FB00BF4DF808EDFFF7C4FFCD
:100A000034BF012000205DF808FB00BF4FEA410C15
:100A10007FEA6C5C02D150EA013C0AD14FEA430CF8
:100A20007FEA6C5C02D152EA033C02D14FF0000035
:100A300070474FF0010070474FEA410212F5001273
:100A400015D211D56FF47873B3EB625212D94FEA15
:100A5000C12343F0004343EA505311F0004F23FAFF
:100A600002F018BF404270474FF00000704750EA54
:100A7000013005D111F0004008BF6FF00040704711
:100A80004FF00000704700BF4A0011D212F500126B
:100A900011D20DD56FF47873B3EB62520ED44FEAD6
:100AA000C12343F0004343EA505323FA02F0704756
:100AB0004FF00000704750EA013002D14FF0FF3094
:100AC00070474FF0000070474FEA4102B2F1E04337
:100AD00024BFB3F5001CDCF1FE5C0DD901F0004C25
:100AE0004FEAC0024CEA5070B2F1004F40EB830075
:100AF00008BF20F00100704711F0804F21D113F1A1
:100B00003872BCBF01F00040704741F480114FEAD9
:100B10005252C2F11802C2F1200C10FA0CF320FA62
:100B200002F018BF40F001004FEAC1234FEAD3237F
:100B300003FA0CFC40EA0C0023FA02F34FEA4303E9
:100B4000CCE77FEA625307D150EA01331EBF4FF072
:100B5000FE4040F44000704701F0004040F0FE408D
:100B600040F40000704700BF38B505460C4600222F
:100B7000002328462146FFF721FF28B928462146B1
:100B8000BDE8384000F00AB8284604F1004100F002
:100B900005F8404261EB410138BD00BFD0B50022ED
:100BA0000B4B06460F46FFF797FCFFF76DFF044619
:100BB000FFF718FC0022074BFFF78EFC02460B469E
:100BC00030463946FFF7D0FAFFF75EFF2146D0BD29
:100BD0000000F03D0000F04180B489B000AFF86043
:100BE000B9607A607B68FB6125E00123BB6100236B
:100BF0007B6112E0FA697B6913441A46FB6813446F
:100C00001A787B69B9680B441B789A4202D000239A
:100C1000BB6108E07B6901337B617B69BA6813447F
:100C20001B78002BE6D1BB69002B01D0FB690AE0E1
:100C3000FB690133FB61FB69FA6813441B78002BE5
:100C4000D3D14FF0FF3318462437BD4680BC7047E0
:100C500080B500AF002240494048FFF7BDFF034682
:100C6000002B0CDB3D4B9B7A302B04D100F0DCFADF
:100C70003B4B00221A60394807F060FC66E0374BB6
:100C80005B78052B26D801A252F823F0A50C0008AA
:100C9000AD0C0008B50C0008BD0C0008C50C000820
:100CA000CD0C00082F4B00221A7013E02D4B0122AF
:100CB0001A700FE02B4B02221A700BE0294B032213
:100CC0001A7007E0274B04221A7003E0254B052217
:100CD0001A7000BF214BDB78012B02D0022B03D00E
:100CE00005E0204B06221A701E4B07221A701D4B7E
:100CF0001B78072B2AD801A252F823F01D0D0008FB
:100D0000230D0008290D00082F0D0008350D0008DF
:100D10003B0D0008410D0008470D000800F084FA63
:100D200014E000F0BBFA11E000F0F6FA0EE000F07B
:100D300013FB0BE000F058FA08E000F035FA05E08C
:100D400000F02AFB02E000F047FB00BF064B002248
:100D50001A6000BF80BD00BF70C10008FC01002008
:100D600068040020B40300200403002080B588B08C
:100D700000AF07F1100300221A605A609A60DA602F
:100D80002F4B9B692E4A43F0200393612C4B9B69A8
:100D900003F02003FB60FB68294B9B69284A43F062
:100DA00004039361264B9B6903F00403BB60BB689B
:100DB000234B9B69224A43F008039361204B9B69B4
:100DC00003F008037B607B68002248F208311D486D
:100DD00001F0C2FE00224FF400411B4801F0BCFEAE
:100DE0004FF4E0433B6100237B610023BB6107F1CB
:100DF00010031946134801F02BFD48F208333B61FC
:100E000001237B610023BB610223FB6107F1100317
:100E100019460C4801F01CFD4FF400433B610123CF
:100E20007B610023BB610223FB6107F110031946BC
:100E3000054801F00DFD00BF2037BD4680BD00BF55
:100E400000100240000C01400008014080B500AFD6
:100E5000124B134A1A60114B124A5A600F4B002270
:100E60009A600E4B0022DA600C4B4FF480421A61FC
:100E70000A4B00225A61094B00229A61074B00225B
:100E8000DA61064B00221A62044801F07DFE034637
:100E9000002B01D000F013F900BF80BD0803002033
:100EA00000540040801A060080B500AF124B134A70
:100EB0001A60114B124A5A600F4B00229A600E4B77
:100EC0000022DA600C4B4FF480421A610A4B002278
:100ED0005A61094B00229A61074B0022DA61064BE6
:100EE00000221A62044801F04FFE0346002B01D095
:100EF00000F0E5F800BF80BD5C0300200058004012
:100F0000A086010080B58AB000AF786007F11803B1
:100F100000221A605A609A60DA607B681B682F4A68
:100F200093422CD12E4B9B692D4A43F008039361C9
:100F30002B4B9B6903F008037B617B69C023BB617A
:100F40001223FB6103237B6207F11803194625482E
:100F500001F07EFC224BDB69214A43F40013D3618C
:100F60001F4BDB6903F400133B613B690022002146
:100F70001F2001F07AFB1F2001F093FB29E07B6822
:100F80001B68194A934224D1154B9B69144A43F0BC
:100F900008039361124B9B6903F00803FB60FB6835
:100FA0004FF44063BB611223FB6103237B6207F1B3
:100FB000180319460B4801F04BFC094BDB69084A42
:100FC00043F48003D361064BDB6903F48003BB6009
:100FD000BB6800BF2837BD4680BD00BF005400403D
:100FE00000100240000C01400058004080B500AFE6
:100FF00001F0F0F900F01EF8FFF7B8FE00F0E0FE97
:10100000FFF724FF01F0D8F800F02EFF01F0FEF802
:10101000FFF74AFF00F084FB00F07AFF00F040FE8B
:101020000021034804F0AEFA00F0FAFAFCE700BF32
:101030006C07002080B590B000AF07F1180328229C
:101040000021184606F07EFB3B1D00221A605A6004
:101050009A60DA601A610123BB614FF48033FB614F
:1010600000233B620123BB6202237B634FF4803386
:10107000BB634FF4E013FB6307F11803184603F05A
:1010800093FD0346002B01D000F019F80F237B607D
:101090000223BB600023FB604FF480633B610023AD
:1010A0007B613B1D0221184604F000F80346002B2B
:1010B00001D000F004F800BF4037BD4680BD80B4C9
:1010C00000AF72B600BFFEE72DE9B04386B000AFB7
:1010D000F860C7E90023FB689B687B61FB68D3E984
:1010E0000001D7E90023FFF73FF802460B46F968F5
:1010F000C1E904237869FFF785F980468946FB68D2
:10110000D3E90845FB68D3E90401FB68D3E906236A
:10111000FFF72AF802460B4620462946FFF7DCF97E
:1011200002460B4614461D46FB68D3E90A01FB68DC
:10113000D3E90423FFF7D0F902460B46204629469F
:10114000FFF714F802460B4640464946FFF70EF8F3
:1011500002460B4610461946FFF76EFC03467B61BC
:10116000FB68D3E90423F968C1E906237B69B3F579
:10117000803F02DB4FF6FF737B617B69002B01DA56
:1011800000237B61FB68D3E90023064807F050F990
:10119000FB687A699A60FB689B6818461837BD46F9
:1011A000BDE8B08384C1000880B500AF01224FF4D0
:1011B00000410B4801F0D0FC00224FF400710948B7
:1011C00001F0CAFC00220821064801F0C5FC0022FB
:1011D0004FF48071034801F0BFFC00BF80BD00BF29
:1011E00000080140000C014080B500AF00224FF420
:1011F00000410B4801F0B0FC00224FF40071094897
:1012000001F0AAFC01220821064801F0A5FC0022F9
:101210004FF48071034801F09FFC00BF80BD00BF08
:1012200000080140000C014080B500AF154B0022C2
:101230001A603C21144804F0BFFD0821134804F053
:10124000C1FB3C21124804F0B7FD0C210F4804F00B
:10125000B9FB00224FF400410E4801F07DFC002252
:101260004FF400710C4801F077FC002208210A4875
:1012700001F072FC00224FF48071074801F06CFC11
:1012800000BF80BDB003002024070020DC06002042
:101290006C07002000080140000C014080B500AF41
:1012A0003C21174804F0DAFC0821164804F0A2FAA1
:1012B0003C21154804F0D2FC0C21124804F09AFAA3
:1012C00001224FF40041114801F046FC00224FF486
:1012D00000710F4801F040FC012208210C4801F088
:1012E0003BFC00224FF48071094801F035FC4FF4BB
:1012F000FA6001F0BFF8074B01221A6000BF80BD01
:1013000024070020DC0600206C07002000080140B4
:10131000000C0140B003002080B500AF01224FF463
:1013200000410B4801F018FC00224FF400710948FD
:1013300001F012FC01220821064801F00DFC0022F8
:101340004FF48071034801F007FC00BF80BD00BF6F
:1013500000080140000C014080B500AF00224FF4AE
:1013600000410B4801F0F8FB01224FF400710948DD
:1013700001F0F2FB00220821064801F0EDFB0122FA
:101380004FF48071034801F0E7FB00BF80BD00BF50
:1013900000080140000C014080B500AF00224FF46E
:1013A00000410B4801F0D8FB01224FF400710948BD
:1013B00001F0D2FB01220821064801F0CDFB0022FA
:1013C0004FF48071034801F0C7FB00BF80BD00BF30
:1013D00000080140000C014080B500AF01224FF42D
:1013E00000410B4801F0B8FB00224FF4007109489E
:1013F00001F0B2FB00220821064801F0ADFB0122FA
:101400004FF48071034801F0A7FB00BF80BD00BF0F
:1014100000080140000C014080B586B004AF0346CF
:10142000FB710123029301230193FB1D0093012310
:1014300000227821064801F0EBFC0346002B02D085
:10144000044806F0F5FF00BF0837BD4680BD00BF69
:10145000080300208CC1000880B586B004AF0346A5
:10146000FB710123029301230193FB1D00930123D0
:1014700040227821064801F0CBFC0346002B02D025
:10148000044806F0D5FF00BF0837BD4680BD00BF49
:1014900008030020B0C1000880B582B000AF034649
:1014A0003960FB713B68002B03D03B68012B05D0F2
:1014B00009E0FB791846FFF7AFFF04E0FB79184617
:1014C000FFF7CAFF00BF00BF0837BD4680BD80B52B
:1014D00082B000AF0023FB711FE0FB79503BDBB211
:1014E00000211846FFF7D8FF00210020FFF7D4FFA6
:1014F00000211020FFF7D0FF0023BB7106E001217F
:101500000020FFF7C9FFBB790133BB7197F90630A3
:10151000002BF4DAFB790133FB71FB79072BDCD963
:1015200000BF00BF0837BD4680BD000080B500AFDA
:101530004FF4487000F09EFF384801F025FB002171
:10154000AE20FFF7A9FF00210020FFF7A5FF002133
:101550001020FFF7A1FF00214020FFF79DFF002191
:10156000B020FFF799FF00218120FFF795FF0021B0
:10157000FF20FFF791FF0021A120FFF78DFF002141
:10158000A620FFF789FF0021A820FFF785FF002193
:101590003F20FFF781FF0021C820FFF77DFF0021DA
:1015A000D320FFF779FF00210020FFF775FF00210E
:1015B000D520FFF771FF00218020FFF76DFF00218C
:1015C000D820FFF769FF00210520FFF765FF002104
:1015D000D920FFF761FF0021F120FFF75DFF002117
:1015E000DA20FFF759FF00211220FFF755FF0021F5
:1015F000DB20FFF751FF00213020FFF74DFF0021D6
:101600008D20FFF749FF00211420FFF745FF00213F
:10161000AF20FFF741FF00BF80BD00BF08030020DF
:1016200080B500AF00F012F8FFF780FFFFF74FFF23
:10163000044B1B68012B01D1FFF70AFB024B1B680F
:10164000002BF5E7040300206804002080B500AFFC
:1016500001220349034805F0F9FB00BF80BD00BF2C
:1016600070050020FC07002080B586B000AFF86050
:10167000B9607A60FB68002B05D00F4B09221A6015
:101680004FF0FF3314E000237B610CE0BB680133B3
:10169000BB604FF47A730122B968084805F034FB47
:1016A0007B6901337B617A697B689A42EEDB7B69F7
:1016B00018461837BD4680BD88080020FC0700206A
:1016C00080B586B000AFF860B9607A60FB68012B26
:1016D00008D0FB68022B05D00F4B09221A604FF08F
:1016E000FF3314E000237B610CE04FF47A73012296
:1016F000B9680A4805F076FABB680133BB607B69BC
:1017000001337B617A697B689A42EEDB7B6918461C
:101710001837BD4680BD00BF88080020FC070020A8
:1017200080B500AF174B184A1A60164B4FF48272FF
:101730005A60144B00229A60124B0022DA60114B5F
:1017400000221A610F4B00225A610E4B4FF4802287
:101750009A610C4B1822DA610A4B00221A62094B7B
:1017600000225A62074B00229A62064B0A22DA6272
:10177000044803F033FE0346002B01D0FFF79FFC23
:1017800000BF80BD840600200030014080B588B0D5
:1017900000AF786007F1100300221A605A609A6067
:1017A000DA607B681B681B4A93422FD11A4B9B69F6
:1017B000194A43F480539361174B9B6903F4805398
:1017C000FB60FB68144B9B69134A43F0040393616D
:1017D000114B9B6903F00403BB60BB68B0233B6102
:1017E00002237B610323FB6107F1100319460B48B9
:1017F00001F02EF840233B6100237B610023BB6195
:1018000007F110031946054801F022F800BF203700
:10181000BD4680BD0030014000100240000801407C
:1018200080B485B000AF154B9B69144A43F00103A7
:101830009361124B9B6903F00103BB60BB680F4BC4
:10184000DB690E4A43F08053D3610C4BDB6903F034
:1018500080537B607B680A4B5B68FB60FB6823F00E
:10186000E063FB60FB6843F00073FB60044AFB68C5
:10187000536000BF1437BD4680BC70470010024063
:101880000000014080B400AFFEE780B400AFFEE787
:1018900080B400AFFEE780B400AFFEE780B400AFD5
:1018A000FEE780B400AF00BFBD4680BC704780B487
:1018B00000AF00BFBD4680BC704780B400AF00BF22
:1018C000BD4680BC704780B500AF00F03FF800BF58
:1018D00080BD000080B500AF024804F022FB00BFCD
:1018E00080BD00BFDC06002080B500AF024804F0D8
:1018F00018FB00BF80BD00BF2407002080B500AFEB
:10190000024804F00EFB00BF80BD00BF6C07002042
:1019100080B500AF024801F075FB00BF80BD00BF7D
:101920000803002080B500AF024805F0BFFA00BFF1
:1019300080BD00BFFC07002080B500AF024805F065
:10194000B5FA00BF80BD00BF4008002080B500AFE1
:10195000514B1B781A46514B1B6813444F4A136076
:101960004F4B1B68012B40F095804C4B1A684D4B38
:10197000A3FB02139B094FF47A7101FB03F3D31A03
:10198000002B40F08780484806F0D8FD474B1B6885
:101990005B6A1A46464BDA60464B1B685B6A1A461E
:1019A000454BDA60424B9A68414B1B68D31A1A04C4
:1019B0003F4BDB681A443E4B5B68D31A1846FEF770
:1019C00021FD4FF000023D4BFEF7B0FE02460B46F4
:1019D000104619464FF00002394BFEF7A7FE0246AB
:1019E0000B46104619464FF00002364BFEF79EFE9E
:1019F00002460B462E49C1E904232F4B9A682E4B11
:101A00001B68D31A1A042C4BDB681A442A4B5B68F8
:101A1000D31A1846FEF7F6FC4FF00002274BFEF7EC
:101A200085FE02460B46104619464FF00002244B35
:101A3000FEF77CFE02460B46104619464FF00002A8
:101A4000204BFEF773FE02460B461B49C1E90423F7
:101A5000174BDB68164A5360154B9B68144A13609A
:101A6000154BDB68144A5360134B9B68124A136092
:101A70000F4BD3E904231448FFF726FB0246134B10
:101A80005A630D4BD3E904231148FFF71DFB0246AF
:101A90000E4B1A6400BF80BD08000020840800209F
:101AA000B0030020D34D6210CCC1000824070020F1
:101AB000380400206C0700205004002000805640AD
:101AC00000002A4000001040B8030020002C014014
:101AD000F803002080B483B000AF78607B680B4AC5
:101AE000934205D10A4B9B680133094A936008E091
:101AF0007B68084A934204D1074B9B680133064A2E
:101B0000936000BF0C37BD4680BC7047240700209F
:101B1000380400206C0700205004002080B582B0FB
:101B200000AF78607B681B684A4A934254D14A4BA5
:101B30001B68FF2B02D1484B00221A60474B1B78D1
:101B4000242B05D1464B00221A60464B01221A6015
:101B5000444B1B68012B09D1414B1B685A1C40495F
:101B60000A603E4A1178404AD15408E03A4B1B685B
:101B70005A1C39490A60394A11783C4AD154394BC8
:101B80001B68012B0ED1354B1B78232B0AD1344B0C
:101B90001B68354A0021D154354B01221A60314B64
:101BA00000221A602C4B1B68002B10DD2A4B1B688F
:101BB000013B2E4AD35C0A2B09D1274B1B68023B01
:101BC0002A4AD35C0D2B02D12A4B01221A60012232
:101BD0002249294805F03AF97B681B68274A934255
:101BE00034D1274B1B680133254A1360244B1B68F3
:101BF000FE2B04DD184B1B68FF3B174A1360164B86
:101C00001B685A1C14490A60144A11781D4AD154A1
:101C10001B4B1B68002B14DD0F4B1B68013B134A49
:101C2000D35C0A2B0DD10C4B1B68023B0F4AD35CD3
:101C30000D2B06D1124B00221A60114B1B68124A61
:101C4000136001221149124805F000F900BF08375E
:101C5000BD4680BD003801406C05002070050020A5
:101C6000FC02002000030020FC0100206C04002086
:101C70000403002080060020FC07002000440040F0
:101C80007406002074050020780600207C060020E1
:101C90004008002080B400AF00BFBD4680BC704744
:101CA00080B592B000AF07F1400300221A605A607D
:101CB00007F1240300221A605A609A60DA601A6100
:101CC0005A619A613B1D20220021184605F03AFD19
:101CD000394B3A4A1A60384B47225A60364B002239
:101CE0009A60354B4FF6FF72DA60334B00221A616F
:101CF000314B00225A61304B80229A612E4803F00A
:101D000029FD0346002B01D0FFF7D9F900233B64DE
:101D100000237B6407F140031946274804F054FE72
:101D20000346002B01D0FFF7CAF960237B62002332
:101D3000BB620023FB6200233B6300237B63002321
:101D4000BB630023FB6307F12403002219461A48F2
:101D500004F0F0F90346002B01D0FFF7B0F907F1CA
:101D600024030C221946144804F0E4F90346002B1E
:101D700001D0FFF7A4F900237B600023BB600023A0
:101D8000FB6000233B6100237B614FF40053BB6188
:101D900000233B623B1D1946074804F073FE0346CF
:101DA000002B01D0FFF78BF9034800F0D1F900BFF9
:101DB0004837BD4680BD00BFDC060020002C014036
:101DC00080B58CB000AF07F10C0324220021184627
:101DD00005F0B8FC3B1D00221A605A60214B4FF001
:101DE00080421A601F4B00225A601E4B00229A60EC
:101DF0001C4B4FF6FF72DA601A4B00221A61194B26
:101E000000229A610323FB6000233B6101237B6175
:101E10000023BB610023FB6100233B6201237B6243
:101E20000023BB620023FB6207F10C0319460D4837
:101E300003F072FE0346002B01D0FFF740F90023A8
:101E40007B600023BB603B1D1946064804F0BCFDC7
:101E50000346002B01D0FFF732F900BF3037BD46F3
:101E600080BD00BF2407002080B58CB000AF07F113
:101E70000C0324220021184605F064FC3B1D0022BF
:101E80001A605A60204B214A1A601F4B00225A6088
:101E90001D4B00229A601C4B4FF6FF72DA601A4B02
:101EA00000221A61184B00229A610323FB60002371
:101EB0003B6101237B610023BB610023FB610023A5
:101EC0003B6201237B620023BB620023FB6207F1BC
:101ED0000C0319460C4803F01FFE0346002B01D0EB
:101EE000FFF7EDF800237B600023BB603B1D194624
:101EF000054804F069FD0346002B01D0FFF7DFF829
:101F000000BF3037BD4680BD6C0700200004004094
:101F100080B586B000AF07F1080300221A605A604E
:101F20009A60DA603B4600221A605A601D4B1E4AD6
:101F30001A601C4B47225A601A4B00229A60194BB8
:101F40004EF65F22DA60174B00221A61154B802291
:101F50009A61144803F0C6FA0346002B01D0FFF73C
:101F6000AEF84FF48053BB6007F1080319460D48E3
:101F700004F09EF90346002B01D0FFF7A0F80023E0
:101F80003B6000237B603B461946064804F01CFD7D
:101F90000346002B01D0FFF792F800BF1837BD466B
:101FA00080BD00BFB40700200008004080B584B0A9
:101FB00000AF78607B681B680D4A934213D10D4BCC
:101FC0009B690C4A43F4006393610A4B9B6903F4D9
:101FD0000063FB60FB6800220021192000F045FB34
:101FE000192000F05EFB00BF1037BD4680BD00BF6A
:101FF000002C01400010024080B58CB000AF78602A
:1020000007F11C0300221A605A609A60DA607B684C
:102010001B68B3F1804F2CD1394BDB69384A43F050
:102020000103D361364BDB6903F00103BB61BB697C
:10203000334B9B69324A43F004039361304B9B69F5
:1020400003F004037B617B690323FB6100233B6294
:1020500000237B6207F11C0319462A4800F0F8FBB5
:10206000002200211C2000F000FB1C2000F019FBC6
:1020700042E07B681B68244A93423DD1204BDB69D8
:102080001F4A43F00203D3611D4BDB6903F00203D7
:102090003B613B691A4B9B69194A43F00803936102
:1020A000174B9B6903F00803FB60FB683023FB615F
:1020B00000233B6200237B6207F11C03194613488F
:1020C00000F0C6FB124B5B68FB62FB6A23F44063C3
:1020D000FB62FB6A43F0E063FB62FB6A43F400636C
:1020E000FB620B4AFB6A5360002200211D2000F0B6
:1020F000BCFA1D2000F0D5FA00BF3037BD4680BDC8
:10210000001002400008014000040040000C0140A3
:102110000000014080B485B000AF78607B681B6828
:10212000094A93420BD1094BDB69084A43F0040387
:10213000D361064BDB6903F00403FB60FB6800BF5F
:102140001437BD4680BC70470008004000100240B4
:1021500080B588B000AF786007F1100300221A60E4
:102160005A609A60DA607B681B68104A934218D103
:102170000F4B9B690E4A43F0040393610C4B9B6920
:1021800003F00403FB60FB684FF410633B61022320
:102190007B610223FB6107F110031946054800F03B
:1021A00057FB00BF2037BD4680BD00BF002C01405B
:1021B000001002400008014080B500AF114B124AE8
:1021C0001A60104B4FF4E1325A600E4B00229A60B5
:1021D0000C4B0022DA600B4B00221A61094B0C22D7
:1021E0005A61084B00229A61064B0022DA610548C9
:1021F00004F0ABFC0346002B01D0FEF760FF00BFEC
:1022000080BD00BFFC0700200038014080B500AF52
:10221000114B124A1A60104B4FF4E1325A600E4BC8
:1022200000229A600C4B0022DA600B4B00221A61EC
:10223000094B0C225A61084B00229A61064B00227E
:10224000DA61054804F081FC0346002B01D0FEF75B
:1022500036FF00BF80BD00BF4008002000440040A2
:1022600080B58AB000AF786007F1180300221A60C9
:102270005A609A60DA607B681B683F4A93423AD1A1
:102280003E4B9B693D4A43F4804393613B4B9B69C2
:1022900003F480437B617B69384B9B69374A43F089
:1022A00004039361354B9B6903F004033B613B6975
:1022B0004FF40073BB610223FB6103237B6207F1D0
:1022C000180319462E4800F0C3FA4FF48063BB612F
:1022D0000023FB6100233B6207F1180319462848DD
:1022E00000F0B6FA00220021252000F0BEF92520DA
:1022F00000F0D7F93CE07B681B68224A934237D153
:102300001E4BDB691D4A43F40033D3611B4BDB6971
:1023100003F40033FB60FB68184B9B69174A43F0DA
:1023200004039361154B9B6903F00403BB60BB6816
:102330000423BB610223FB6103237B6207F11803C3
:1023400019460F4800F084FA0823BB610023FB61A3
:1023500000233B6207F118031946094800F078FA98
:1023600000220021262000F080F9262000F099F9B3
:1023700000BF2837BD4680BD003801400010024034
:1023800000080140004400400C480D490D4A00235C
:1023900002E0D458C4500433C4188C42F9D30A4A1A
:1023A0000A4C002301E013600432A242FBD3FFF782
:1023B00071FC05F0A3F9FEF719FE7047000000203C
:1023C000E0010020B4C60008E00100209C080020C5
:1023D000FEE7000080B500AF084B1B68074A43F0DA
:1023E00010031360032000F035F90F2000F008F807
:1023F000FFF716FA0023184680BD00BF00200240F8
:1024000080B582B000AF7860124B1A68124B1B780F
:1024100019464FF47A73B3FBF1F3B2FBF3F31846AA
:1024200000F04DF90346002B01D001230EE07B683C
:102430000F2B0AD8002279684FF0FF3000F015F911
:10244000064A7B681360002300E001231846083722
:10245000BD4680BD000000200800002004000020D0
:1024600080B400AF024B1B681846BD4680BC704765
:102470008408002080B584B000AF7860FFF7F0FFDB
:10248000B8607B68FB60FB68B3F1FF3F05D00A4B87
:102490001B781A46FB681344FB6000BFFFF7E0FFA0
:1024A0000246BB68D31AFA689A42F7D800BF00BF49
:1024B0001037BD4680BD00BF0800002080B485B045
:1024C00000AF78607B6803F00703FB600C4BDB68B0
:1024D000BB60BA684FF6FF031340BB60FB681A028B
:1024E000BB68134343F0BF6343F40033BB60044A4B
:1024F000BB68D36000BF1437BD4680BC704700BFC7
:1025000000ED00E080B400AF044BDB681B0A03F071
:1025100007031846BD4680BC704700BF00ED00E0D1
:1025200080B483B000AF0346FB7197F90730002BEE
:102530000BDBFB7903F01F02064997F907305B09B3
:10254000012000FA02F241F8232000BF0C37BD46FB
:1025500080BC704700E100E080B483B000AF034668
:102560003960FB7197F90730002B0ADB3B68DAB260
:102570000C4997F907301201D2B20B4483F80023BB
:102580000AE03B68DAB20849FB7903F00F03043B29
:102590001201D2B20B441A7600BF0C37BD4680BC84
:1025A000704700BF00E100E000ED00E080B489B0BA
:1025B00000AFF860B9607A60FB6803F00703FB6165
:1025C000FB69C3F10703042B28BF0423BB61FB692C
:1025D0000433062B02D9FB69033B00E000237B6137
:1025E0004FF0FF32BB6902FA03F3DA43BB681A40CB
:1025F0007B699A404FF0FF317B6901FA03F3D943BD
:102600007B680B40134318462437BD4680BC704797
:1026100080B582B000AF78607B68013BB3F1807F0A
:1026200001D301230FE00A4A7B68013B53600F216D
:102630004FF0FF30FFF790FF054B00229A60044BEC
:1026400007221A60002318460837BD4680BD00BF28
:1026500010E000E080B582B000AF78607868FFF7E6
:102660002DFF00BF0837BD4680BD80B586B000AFE6
:102670000346B9607A60FB7300237B61FFF742FF7A
:1026800078617A68B9687869FFF790FF024697F930
:102690000F3011461846FFF75FFF00BF1837BD46E1
:1026A00080BD80B582B000AF0346FB7197F907305B
:1026B0001846FFF735FF00BF0837BD4680BD80B51F
:1026C00082B000AF78607868FFF7A2FF0346184633
:1026D0000837BD4680BD80B485B000AF7860002368
:1026E000FB737B6893F82130022B08D07B680422AF
:1026F0009A637B68002283F82020012320E07B6816
:102700001B681A687B681B6822F00E021A607B68DF
:102710001B681A687B681B6822F001021A607B68DC
:102720001A6C7B68DB6B012101FA02F25A607B684C
:10273000012283F821207B68002283F82020FB7B84
:1027400018461437BD4680BC7047000080B584B081
:1027500000AF78600023FB737B6893F82130022B75
:1027600005D07B6804229A630123FB7351E07B68E8
:102770001B681A687B681B6822F00E021A607B686F
:102780001B681A687B681B6822F001021A607B686C
:102790001B68224A934229D07B681B68204A9342D7
:1027A00022D07B681B681F4A93421AD07B681B6843
:1027B0001D4A934212D07B681B681C4A93420AD080
:1027C0007B681B681A4A934202D14FF480130EE0D3
:1027D0004FF080730BE04FF4803308E04FF48053E8
:1027E00005E04FF4807302E0102300E00123114A5A
:1027F00053607B68012283F821207B68002283F8E4
:1028000020207B685B6B002B03D07B685B6B786858
:102810009847FB7B18461037BD4680BD0800024034
:102820001C000240300002404400024058000240B8
:102830006C0002400000024080B483B000AF7860BA
:102840007B6893F8213018460C37BD4680BC704732
:1028500080B48BB000AF7860396000237B620023C6
:102860003B6269E101227B6A02FA03F3FB613B6888
:102870001B68FA691340BB61BA69FB699A4240F070
:1028800058813B685B689A4A93425ED0984A93426B
:1028900075D8984A934258D0964A93426FD8964A30
:1028A000934252D0944A934269D8944A93424CD06E
:1028B000924A934263D8924A934246D0904A9342B6
:1028C0005DD8122B2AD8122B59D801A252F823F026
:1028D0004B29000825290008372900087929000814
:1028E0007F2900087F2900087F2900087F29000828
:1028F0007F2900087F2900087F2900087F29000818
:102900007F2900087F2900087F2900087F29000807
:102910007F2900082D29000841290008794A93429F
:1029200013D02CE03B68DB683B6229E03B68DB6846
:1029300004333B6224E03B68DB6808333B621FE002
:102940003B68DB680C333B621AE03B689B68002BFA
:1029500002D104233B6213E03B689B68012B05D145
:1029600008233B627B68FA691A6109E008233B622D
:102970007B68FA695A6103E000233B6200E000BF14
:10298000BB69FF2B01D87B6801E07B6804337B6166
:10299000BB69FF2B02D87B6A9B0002E07B6A083B85
:1029A0009B003B617B691A680F213B6901FA03F3C5
:1029B000DB431A40396A3B6901FA03F31A437B6926
:1029C0001A603B685B6803F08053002B00F0B18015
:1029D0004D4B9B694C4A43F0010393614A4B9B6901
:1029E00003F00103BB60BB68484A7B6A9B08023363
:1029F00052F82330FB607B6A03F003039B000F2235
:102A000002FA03F3DB43FA681340FB607B68404A39
:102A1000934213D07B683F4A93420DD07B683E4A75
:102A2000934207D07B683D4A934201D1032306E0DD
:102A3000042304E0022302E0012300E000237A6A79
:102A400002F0030292009340FA681343FB602F499F
:102A50007B6A9B080233FA6841F823203B685B6875
:102A600003F48033002B06D02D4B1A682C49BB6928
:102A700013430B6006E02A4B1A68BB69DB43284905
:102A800013400B603B685B6803F40033002B06D0F7
:102A9000234B5A682249BB6913434B6006E0204B25
:102AA0005A68BB69DB431E4913404B603B685B6857
:102AB00003F48013002B06D0194B9A681849BB69A0
:102AC00013438B6006E0164B9A68BB69DB431449DD
:102AD00013408B603B685B6803F40013002B21D02C
:102AE0000F4BDA680E49BB691343CB6021E000BF8E
:102AF00000003210000031100000221000002110F0
:102B000000001210000011100010024000000140EF
:102B100000080140000C0140001001400014014079
:102B2000000401400B4BDA68BB69DB4309491340E1
:102B3000CB607B6A01337B623B681A687B6A22FA4E
:102B400003F3002B7FF48EAE00BF00BF2C37BD46D1
:102B500080BC70470004014080B483B000AF78604F
:102B60000B467B8013467B707B78002B03D07A88E2
:102B70007B681A6103E07B881A047B681A6100BFD6
:102B80000C37BD4680BC704780B584B000AF78601C
:102B90007B68002B01D101232BE17B6893F83D304A
:102BA000DBB2002B06D17B68002283F83C207868DA
:102BB000FEF7A8F97B68242283F83D207B681B6818
:102BC0001A687B681B6822F001021A607B681B6828
:102BD0001A687B681B6842F400421A607B681B68B5
:102BE0001A687B681B6822F400421A6002F0B0FB8E
:102BF000F8607B685B68814A934207D8FB68804A2B
:102C0000934294BF01230023DBB206E0FB687D4AB8
:102C1000934294BF01230023DBB2002B01D0012398
:102C2000E7E0FB68784AA2FB03239B0CBB607B6850
:102C30001B685B6823F03F017B681B68BA680A4326
:102C40005A607B681B681B6A23F03F017B685B68E6
:102C50006A4A934202D8BB68013309E0BB684FF46B
:102C6000967202FB03F3694AA2FB03239B0901331B
:102C70007A6812680B4313627B681B68DB6923F474
:102C80004F4222F0FF027B685B685C498B4219D897
:102C9000FB68591E7B685B685B00B1FBF3F3591C52
:102CA00040F6FC730B40002B0AD0FB68591E7B6872
:102CB0005B685B00B1FBF3F30133C3F30B0351E03B
:102CC00004234FE07B689B68002B11D1FB68581EE2
:102CD0007B6859680B465B000B44B0FBF3F3013390
:102CE000C3F30B03002B0CBF01230023DBB212E064
:102CF000FB68581E7B6859680B469B000B44990083
:102D00000B44B0FBF3F30133C3F30B03002B0CBFF5
:102D100001230023DBB2002B01D0012322E07B68DA
:102D20009B68002B0ED1FB68581E7B6859680B46C8
:102D30005B000B44B0FBF3F30133C3F30B0343F429
:102D400000430FE0FB68581E7B6859680B469B00E8
:102D50000B4499000B44B0FBF3F30133C3F30B03B3
:102D600043F44043796809681343CB617B681B686F
:102D70001B6823F0C0017B68DA697B681B6A1A4311
:102D80007B681B680A431A607B681B689B6823F496
:102D9000034323F0FF037A6811697A68D26811430C
:102DA0007A6812680B4393607B681B68DB6823F0CA
:102DB000FF017B685A697B689B691A437B681B68C3
:102DC0000A43DA607B681B681A687B681B6842F0FC
:102DD00001021A607B6800221A647B68202283F853
:102DE0003D207B6800221A637B68002283F83E2026
:102DF000002318461037BD4680BD00BFA0860100E5
:102E00007F841E00FF083D0083DE1B43D34D62100C
:102E100080B588B002AFF860084611461A460346EE
:102E20007B810B463B811346FB80FFF719FB7861E2
:102E3000FB6893F83D30DBB2202B40F0D9807B69F2
:102E40000093192301226D49F86801F0DBFC034669
:102E5000002B01D00223CCE0FB6893F83C30012B1F
:102E600001D10223C5E0FB68012283F83C20FB6806
:102E70001B681B6803F00103012B07D0FB681B686C
:102E80001A68FB681B6842F001021A60FB681B6845
:102E90001A68FB681B6822F400621A60FB68212232
:102EA00083F83D20FB68402283F83E20FB68002227
:102EB0001A64FB683A6A5A62FB68BA8C5A85FB68E6
:102EC0005B8D9AB2FB681A85FB684D4ADA62F88816
:102ED0003A8979897B690193BB6A00930346F86854
:102EE00001F052FB0346002B52D0012381E07A69A6
:102EF000B96AF86801F05CFD0346002B0DD0FB6851
:102F00001B6C042B07D1FB681B681A68FB681B68E5
:102F100042F400721A6001236BE0FB685B6A1A7866
:102F2000FB681B681A61FB685B6A5A1CFB685A6283
:102F3000FB681B8D013B9AB2FB681A85FB685B8DB1
:102F40009BB2013B9AB2FB685A85FB681B685B69C0
:102F500003F00403042B1BD1FB681B8D002B17D03F
:102F6000FB685B6A1A78FB681B681A61FB685B6A1E
:102F70005A1CFB685A62FB681B8D013B9AB2FB68C6
:102F80001A85FB685B8D9BB2013B9AB2FB685A8540
:102F9000FB681B8D002BAAD17A69B96AF86801F029
:102FA00048FD0346002B0DD0FB681B6C042B07D19A
:102FB000FB681B681A68FB681B6842F400721A60A1
:102FC000012316E0FB681B681A68FB681B6842F463
:102FD00000721A60FB68202283F83D20FB68002203
:102FE00083F83E20FB68002283F83C20002300E0A9
:102FF000022318461837BD4680BD00BF02001000EE
:103000000000FFFF80B588B000AF78600023BB618F
:103010007B681B685B687B617B68DB6A3B617B6804
:1030200093F83E30FB737B6893F83D30BB73FB7BBA
:10303000102B03D0FB7B402B40F0C1807B681B68CA
:103040009B69BB617B681B685B69FB61FB6903F083
:103050000103002B0DD13B69B3F52A0F03D03B6967
:10306000B3F12A4F01D1012300E00023012B00F02E
:103070003281FB6903F00103002B0CD07B695B0AF2
:1030800003F00103002B06D0786801F073FD786827
:1030900000F0C8FC92E0FB69DB0803F00103002BA1
:1030A00009D07B695B0A03F00103002B03D0786829
:1030B00000F03DFD82E0FB695B0803F00103002B9B
:1030C00009D07B695B0A03F00103002B03D0786809
:1030D00000F056FD72E0BB699B0803F00103002B72
:1030E0003BD07B681B685B6803F40063B3F5006F3B
:1030F00000F0F380FB69DB0903F00103002B0FD024
:103100007B699B0A03F00103002B09D0FB699B0834
:1031100003F00103002B03D1786800F042F94DE081
:10312000FB699B0803F00103002B00F0D6807B694C
:103130005B0A03F00103002B00F0CF80BB7B212B47
:1031400003D1786800F0C9F9C7E0FB7B402B40F061
:10315000C480786800F037FABFE07B681B685B6862
:1031600003F40063B3F5006F00F0B780FB699B09BF
:1031700003F00103002B0FD07B699B0A03F00103CE
:10318000002B09D0FB699B0803F00103002B03D13E
:10319000786800F0ACFA11E0FB699B0803F00103CA
:1031A000002B00F09A807B695B0A03F00103002B7F
:1031B00000F09380786800F04BFB8EE08DE07B6838
:1031C0001B6C002B04D07B681B685B69FB6107E00C
:1031D0007B681B689B69BB617B681B685B69FB61E3
:1031E000FB695B0803F00103002B12D07B695B0ACB
:1031F00003F00103002B0CD07B681B6C002B03D069
:103200007B681B689B69BB61B969786800F00FFF38
:1032100066E0FB691B0903F00103002B09D07B6901
:103220005B0A03F00103002B03D0786800F04AFF2B
:1032300056E0BB7B212B02D0BB7B292B25D1FB6920
:10324000DB0903F00103002B0FD07B699B0A03F01D
:103250000103002B09D0FB699B0803F00103002B3D
:1032600003D1786800F027FE39E0FB699B0803F082
:103270000103002B33D07B695B0A03F00103002BB1
:103280002DD0786800F054FE29E0FB699B0903F01B
:103290000103002B0FD07B699B0A03F00103002B75
:1032A00009D0FB699B0803F00103002B03D1786868
:1032B00000F05EFE14E0FB699B0803F00103002BA5
:1032C0000ED07B695B0A03F00103002B08D07868FD
:1032D00000F08CFE04E000BF02E000BF00E000BF91
:1032E0002037BD4680BD80B483B000AF786000BF9A
:1032F0000C37BD4680BC704780B483B000AF7860A7
:1033000000BF0C37BD4680BC704780B483B000AFAF
:10331000786000BF0C37BD4680BC704780B483B076
:1033200000AF786000BF0C37BD4680BC704780B4EA
:1033300083B000AF78600B46FB7013463B8000BF44
:103340000C37BD4680BC704780B483B000AF786056
:1033500000BF0C37BD4680BC704780B483B000AF5F
:10336000786000BF0C37BD4680BC704780B483B026
:1033700000AF786000BF0C37BD4680BC704780B49A
:1033800083B000AF786000BF0C37BD4680BC70478B
:1033900080B483B000AF786000BF0C37BD4680BCFE
:1033A000704780B584B000AF78607B6893F83D309B
:1033B000FB737B6893F83E30BB737B68DB6ABB6052
:1033C0007B681B8D002B50D1FB7B212B4DD1BB6823
:1033D000082B1DD0BB68202B1AD0BB6813F5803F8B
:1033E00016D07B681B685A687B681B6822F4E06211
:1033F0005A607B6811221A637B68002283F83E20A2
:103400007B68202283F83D207868FFF76CFF60E03E
:103410007B681B685A687B681B6822F4E0625A600C
:103420007B681B681A687B681B6842F400721A602C
:103430007B6800221A637B68202283F83D207B682A
:1034400093F83E30DBB2402B07D17B68002283F833
:103450003E207868FFF781FF3BE07B68002283F81D
:103460003E207868FFF73FFF33E0FB7B212B05D040
:10347000BB7B402B2DD1FB7B222B2AD17B685B8D24
:103480009BB2002B08D17B681B685A687B681B685D
:1034900022F480625A601CE07B6893F83E30DBB215
:1034A000402B03D1786800F08EF812E07B685B6AED
:1034B0001A787B681B681A617B685B6A5A1C7B6898
:1034C0005A627B685B8D9BB2013B9AB27B685A85DE
:1034D000FFE700BF1037BD4680BD80B584B000AFA8
:1034E00078607B68DB6AFB607B6893F83D30DBB219
:1034F000212B64D17B685B8D9BB2002B12D07B6843
:103500005B6A1A787B681B681A617B685B6A5A1C65
:103510007B685A627B685B8D9BB2013B9AB27B6889
:103520005A854CE0FB68082B1DD0FB68202B1AD075
:10353000FB6813F5803F16D07B681B685A687B6870
:103540001B6822F4E0625A607B6811221A637B6870
:10355000002283F83E207B68202283F83D20786893
:10356000FFF7C1FE2BE07B681B685A687B681B680D
:1035700022F4E0625A607B681B681A687B681B68EB
:1035800042F400721A607B6800221A637B68202272
:1035900083F83D207B6893F83E30DBB2402B07D1A7
:1035A0007B68002283F83E207868FFF7D6FE06E0AD
:1035B0007B68002283F83E207868FFF794FE00BF06
:1035C0001037BD4680BD80B584B000AF78607B68A1
:1035D00093F83D30FB737B681B6D002B1DD17B681E
:1035E000DB6C012B0BD17B689B6CDAB27B681B68B0
:1035F0001A617B681B6D9A1C7B681A6573E07B6897
:103600009B6C9BB21B12DAB27B681B681A617B68E9
:103610001B6D5A1C7B681A6565E07B681B6D012B6E
:103620000BD17B689B6CDAB27B681B681A617B6884
:103630001B6D5A1C7B681A6555E07B681B6D022B5D
:1036400051D1FB7B222B0DD17B681B681A687B68EC
:103650001B6842F480721A607B681B6D5A1C7B6881
:103660001A6540E07B685B8D9BB2002B15D0FB7B1D
:10367000212B12D17B685B6A1A787B681B681A6100
:103680007B685B6A5A1C7B685A627B685B8D9BB265
:10369000013B9AB27B685A8525E07B685B8D9BB2C3
:1036A000002B20D1FB7B212B1DD17B681B685A6826
:1036B0007B681B6822F4E0625A607B681B681A68AA
:1036C0007B681B6842F400721A607B6800221A63F0
:1036D0007B68202283F83D207B68002283F83E200F
:1036E0007868FFF73AFE00BF1037BD4680BD80B551
:1036F00084B000AF78607B6893F83D30DBB2222B5A
:1037000040F0A2807B685B8D9BB2FB60FB68032B63
:1037100021D97B681B681A697B685B6AD2B21A7010
:103720007B685B6A5A1C7B685A627B685B8D9BB2C4
:10373000013B9AB27B685A857B685B8D9BB2032BF9
:1037400040F082807B681B685A687B681B6822F4A3
:1037500080625A6078E07B68DB6A022B74D0FB6879
:10376000012B02D0FB68002B6ED1786801F0A2F922
:103770000346002B42D17B681B681A687B681B6874
:1037800022F480621A607B681B685A687B681B6839
:1037900022F4E0625A607B681B681A697B685B6A86
:1037A000D2B21A707B685B6A5A1C7B685A627B686B
:1037B0005B8D9BB2013B9AB27B685A857B68202265
:1037C00083F83D207B6893F83E30DBB2402B0AD172
:1037D0007B68002283F83E207B6800221A637868A9
:1037E000FFF7C4FD30E07B68002283F83E207B6851
:1037F00012221A637868FFF77FFD25E07B681B685B
:103800005A687B681B6822F4E0625A607B681B6818
:103810001A697B685B6AD2B21A707B685B6A5A1C51
:103820007B685A627B685B8D9BB2013B9AB27B6876
:103830005A857B68202283F83D207B68002283F82C
:103840003E207868FFF79BFD00BF1037BD4680BD66
:1038500080B584B000AF78607B68DB6AFB607B6812
:103860005B8D9BB2042B1BD17B681B685A687B68FD
:103870001B6822F480625A607B681B681A697B6847
:103880005B6AD2B21A707B685B6A5A1C7B685A62A8
:103890007B685B8D9BB2013B9AB27B685A85BDE029
:1038A0007B685B8D9BB2032B29D17B681B685A68B0
:1038B0007B681B6822F480625A60FB68042B0AD084
:1038C000FB68022B07D07B681B681A687B681B6843
:1038D00022F480621A607B681B681A697B685B6AE5
:1038E000D2B21A707B685B6A5A1C7B685A627B682A
:1038F0005B8D9BB2013B9AB27B685A858EE07B68F8
:103900005B8D9BB2022B76D1FB68012B02D0FB684A
:10391000102B08D17B681B681A687B681B6822F42F
:1039200080621A6019E0FB68042B02D0FB68022B4E
:1039300008D17B681B681A687B681B6842F4806248
:103940001A600AE0FB68102B07D07B681B681A68B6
:103950007B681B6842F400721A607B681B681A69F6
:103960007B685B6AD2B21A707B685B6A5A1C7B68A0
:103970005A627B685B8D9BB2013B9AB27B685A8529
:103980007B681B681A697B685B6AD2B21A707B68B5
:103990005B6A5A1C7B685A627B685B8D9BB2013BF9
:1039A0009AB27B685A857B681B685A687B681B687B
:1039B00022F440725A607B68202283F83D207B68A5
:1039C00093F83E30DBB2402B0AD17B68002283F8AB
:1039D0003E207B6800221A637868FFF7C7FC1DE071
:1039E0007B68002283F83E207B6812221A63786885
:1039F000FFF782FC12E07B681B681A697B685B6AD0
:103A0000D2B21A707B685B6A5A1C7B685A627B6808
:103A10005B8D9BB2013B9AB27B685A8500BF103721
:103A2000BD4680BD80B483B000AF78607B6893F8FA
:103A30003E30DBB2402B17D17B681B6D002B09D1C8
:103A40007B685B6CDBB21A467B681B6802F0FE0287
:103A50001A6167E07B685B6CDBB243F00103DAB2AA
:103A60007B681B681A615DE07B681B69B3F5804F5A
:103A700033D17B6893F83D30DBB2212B09D17B68D1
:103A80005B6CDBB21A467B681B6802F0FE021A61AF
:103A900008E07B685B6CDBB243F00103DAB27B6861
:103AA0001B681A617B685B6B002B04D07B685B6BC7
:103AB0009B6A002B08D17B689B6B002B32D07B6804
:103AC0009B6B9B6A002B2DD07B681B685A687B68B8
:103AD0001B6842F400625A6024E07B681B6D002B77
:103AE0000ED17B685B6C9BB2DB11DBB203F006038B
:103AF000DBB263F00F03DAB27B681B681A6111E076
:103B00007B681B6D012B0DD17B685B6C9BB2DB115D
:103B1000DBB203F00603DBB263F00E03DAB27B68BC
:103B20001B681A6100BF0C37BD4680BC704780B46B
:103B300083B000AF78607B685B6CDAB27B681B682F
:103B40001A617B685B6B002B04D07B685B6B9B6AA4
:103B5000002B08D17B689B6B002B0CD07B689B6B88
:103B60009B6A002B07D07B681B685A687B681B68C0
:103B700042F400625A6000BF0C37BD4680BC7047FB
:103B800080B491B000AF78607B6893F83E3087F8DE
:103B90003F307B68DB6ABB637B681B6B7B637B6846
:103BA00093F83D30DBB2222B40F074817B681B6DB3
:103BB000002B0FD197F83F30402B0BD100233B63F4
:103BC0007B681B685B693B637B681B689B693B6325
:103BD0003B6B6BE17B681B6D002B1DD17B681B6908
:103BE000B3F5404F18D10023FB627B681B685B690B
:103BF000FB627B681B689B69FB62FB6A7B681B68D6
:103C00001A687B681B6842F480721A607B681B6DBF
:103C10005A1C7B681A6549E17B685B8D9BB2002B5F
:103C200013D10023BB627B681B685B69BB627B6846
:103C30001B689B69BB62BB6A7B681B681A687B68F0
:103C40001B6842F400721A6020E17B685B8D9BB2B6
:103C5000012B40F08A80BB6B13F5803F37D17B6826
:103C60001B681A687B681B6822F480621A607B6894
:103C70001B685B6803F40063B3F5006F13D17B68C6
:103C80001B681A687B681B6822F480621A60002334
:103C90007B627B681B685B697B627B681B689B69D6
:103CA0007B627B6AF2E000233B627B681B685B6996
:103CB0003B627B681B689B693B623B6A7B681B6855
:103CC0001A687B681B6842F400721A60DEE0BB6B06
:103CD000082B2ED0BB6B202B2BD07B6B122B02D151
:103CE000BB6B012B25D1BB6B042B0ED0BB6B022B06
:103CF0000BD0BB6B102B08D07B681B681A687B68E5
:103D00001B6822F480621A6007E07B681B681A68EF
:103D10007B681B6842F480621A600023FB617B6849
:103D20001B685B69FB617B681B689B69FB61FB69C6
:103D3000ACE07B681B681A687B681B6822F48062B1
:103D40001A600023BB617B681B685B69BB617B6891
:103D50001B689B69BB61BB697B681B681A687B68D1
:103D60001B6842F400721A6090E07B685B8D9BB226
:103D7000022B58D1BB6B042B21D0BB6B022B1ED066
:103D8000BB6B102B1BD07B681B681A687B681B6899
:103D900042F400621A6000237B617B681B685B69E8
:103DA0007B617B681B689B697B617B697B681B68A7
:103DB0001A687B681B6822F480621A6012E07B68D4
:103DC0001B681A687B681B6842F480621A600023D3
:103DD0003B617B681B685B693B617B681B689B6917
:103DE0003B613B697B681B685B6803F40063B3F568
:103DF000006F4BD1BB6B13F5803F0BD0BB6B012B1E
:103E000008D0BB6B082B05D0BB6B102B02D0BB6B53
:103E1000202B3BD17B681B685A687B681B6842F487
:103E200080525A6032E07B681B681A687B681B68A6
:103E300042F480621A607B681B685B6803F400636D
:103E4000B3F5006F17D1BB6B13F5803F0BD0BB6B85
:103E5000012B08D0BB6B082B05D0BB6B102B02D0FD
:103E6000BB6B202B07D17B681B685A687B681B687B
:103E700042F480525A600023FB607B681B685B69D8
:103E8000FB607B681B689B69FB60FB687B680022AA
:103E90001A650BE00023BB607B681B685B69BB6035
:103EA0007B681B689B69BB60BB68FFE700BF44374A
:103EB000BD4680BC704780B584B000AF78607B6839
:103EC00093F83D30FB737B685B8D9BB2002B2BD04E
:103ED0007B685B6A1A787B681B681A617B685B6A1F
:103EE0005A1C7B685A627B685B8D9BB2013B9AB21D
:103EF0007B685A857B685B8D9BB2002B14D1FB7B62
:103F0000292B11D17B681B685A687B681B6822F4D7
:103F100080625A607B6821221A637B68282283F8BA
:103F20003D207868FFF7F1F900BF1037BD4680BD2E
:103F300080B483B000AF78607B685B8D9BB2002B50
:103F400011D07B685B6A1A787B681B681A617B6892
:103F50005B6A5A1C7B685A627B685B8D9BB2013B33
:103F60009AB27B685A8500BF0C37BD4680BC70474B
:103F700080B584B000AF78607B6893F83D30FB7308
:103F80007B685B8D9BB2002B2CD07B681B681A6909
:103F90007B685B6AD2B21A707B685B6A5A1C7B686A
:103FA0005A627B685B8D9BB2013B9AB27B685A85F3
:103FB0007B685B8D9BB2002B14D1FB7B2A2B11D12C
:103FC0007B681B685A687B681B6822F480625A60B1
:103FD0007B6822221A637B68282283F83D20786858
:103FE000FFF79CF900BF1037BD4680BD80B483B099
:103FF00000AF78607B685B8D9BB2002B12D07B6832
:104000001B681A697B685B6AD2B21A707B685B6A4C
:104010005A1C7B685A627B685B8D9BB2013B9AB2EB
:104020007B685A8500BF0C37BD4680BC704780B5A1
:1040300084B000AF786039600023FB737B6893F82D
:104040003D30DBB203F02803282B27D17B681B68A7
:104050005A687B681B6822F480625A603B689B0840
:1040600003F00103002B01D10123FB733B68DB0943
:1040700003F00103002B03D17B68DB68BB8102E006
:104080007B689B69BB817B68002283F83C20BA89EE
:10409000FB7B19467868FFF74AF90EE00023BB6006
:1040A0007B681B685B69BB607B681B689B69BB6046
:1040B000BB687B68002283F83C2000BF1037BD46F8
:1040C00080BD000080B584B000AF78607B6893F855
:1040D0003D30FB737B681B685A687B681B6822F461
:1040E000E0625A600023BB607B681B685B69BB6051
:1040F0007B681B681A687B681B6842F001021A60C3
:10410000BB687B681B681A687B681B6822F4806246
:104110001A607B681B685B6803F40063B3F5006F8B
:1041200072D1FB7B222B02D0FB7B2A2B35D17B6803
:104130009B6B1B685B689AB27B685A857B685B8D5A
:104140009BB2002B05D07B681B6C43F004027B689C
:104150001A647B681B685A687B681B6822F40062DB
:104160005A607B689B6B1846FEF766FB0346012B83
:1041700049D07B689B6B694A5A637B689B6B184686
:10418000FEF7E4FA0346002B3DD07B689B6B5B6B2C
:104190007A68926B1046984735E07B685B6B1B68CA
:1041A0005B689AB27B685A857B685B8D9BB2002BFB
:1041B00005D07B681B6C43F004027B681A647B6843
:1041C0001B685A687B681B6822F400625A607B682F
:1041D0005B6B1846FEF730FB0346012B14D07B685F
:1041E0005B6B4E4A5A637B685B6B1846FEF7AEFA10
:1041F0000346002B08D07B685B6B5B6B7A68526B65
:104200001046984700E000BF7B685B8D9BB2002B97
:104210003ED07B681B685B6903F00403042B12D15A
:104220007B681B681A697B685B6AD2B21A707B680C
:104230005B6A5A1C7B685A627B685B8D9BB2013B50
:104240009AB27B685A857B681B685B6903F0400300
:10425000402B12D17B681B681A697B685B6AD2B2FB
:104260001A707B685B6A5A1C7B685A627B685B8D3C
:104270009BB2013B9AB27B685A857B685B8D9BB28F
:10428000002B05D07B681B6C43F004027B681A642A
:104290007B681B6C002B03D0786800F043F839E092
:1042A000FB7B2A2B09D17B6800221A637B682822BA
:1042B00083F83D207868FFF731F87B6893F83D304C
:1042C000DBB2282B11D17B68154ADA627B680022A9
:1042D0001A637B68202283F83D207B68002283F8E4
:1042E0003E207868FFF730F814E07B681B6B222BC8
:1042F00002D0FB7B222B0DD17B6800221A637B68E6
:10430000202283F83D207B68002283F83E207868D5
:10431000FFF704F800BF1037BD4680BDB546000862
:104320000000FFFF80B584B000AF78607B6893F831
:104330003D30FB737B6893F83E30BB73BB7B102B27
:1043400002D0BB7B402B0AD1FB7B222B07D17B68A1
:104350001B681A687B681B6822F400621A60FB7B8A
:1043600003F02803282B07D17B6800221A637B689F
:10437000282283F83D2015E07B681B685B6803F406
:104380000063B3F5006F0AD0FB7B602B07D07B681E
:10439000202283F83D207B68002283F83E207B6842
:1043A00000221A637B681B685B6803F40063B3F543
:1043B000006F61D17B681B685A687B681B6822F4B8
:1043C00000625A607B685B6B93F82130012B20D030
:1043D0007B685B6B6A4A5A637B685B6B1846FEF7C7
:1043E000B5F90346002B00F089807B681B681A68CA
:1043F0007B681B6822F001021A607B68202283F828
:104400003D207B685B6B5B6B7A68526B104698470C
:1044100074E07B689B6B5A4A5A637B689B6B1846B7
:10442000FEF794F90346002B68D07B681B685B6934
:1044300003F04003402B0BD17B681B681A697B6833
:104440005B6AD2B21A707B685B6A5A1C7B685A62DC
:104450007B681B681A687B681B6822F001021A607F
:104460007B68202283F83D207B689B6B5B6B7A68BE
:10447000926B1046984741E07B6893F83D30DBB281
:10448000602B25D17B68202283F83D207B680022A9
:104490001A647B681B685B6903F04003402B0BD1F7
:1044A0007B681B681A697B685B6AD2B21A707B688A
:1044B0005B6A5A1C7B685A627B681B681A687B6857
:1044C0001B6822F001021A607868FEF761FF15E0B0
:1044D0007B681B685B6903F04003402B0BD17B6852
:1044E0001B681A697B685B6AD2B21A707B685B6A68
:1044F0005A1C7B685A627868FEF741FF7B681B6C28
:10450000BB60BB6803F00103002B0ED1BB6803F056
:104510000203002B09D1BB6803F00403002B04D174
:10452000BB6803F00803002B07D07B681B685A6840
:104530007B681B6822F4E0625A607B6893F83D3028
:10454000FB737B681B6C03F00403042B13D1FB7B10
:10455000282B10D17B680B4ADA627B6800221A6331
:104560007B68202283F83D207B68002283F83E2070
:104570007868FEF7E9FE00BF1037BD4680BD00BF7A
:10458000B54600080000FFFF80B588B002AFF860B4
:10459000084611461A4603467B810B463B8113466B
:1045A000FB80FB681B681A68FB681B6842F480721A
:1045B0001A607B6A00933B6A00224FF00111F86891
:1045C00000F020F90346002B0DD0FB681B681B6828
:1045D00003F48073B3F5807F03D1FB684FF400725E
:1045E0001A6403235FE07B89DBB21A46FB681B6811
:1045F00002F0FE021A617B6A3A6A2D49F86800F0FF
:1046000058F90346002B01D001234CE000237B61C5
:10461000FB681B685B697B61FB681B689B697B614E
:104620007B697A6A396AF86800F0C2F90346002BA0
:104630000DD0FB681B6C042B07D1FB681B681A6844
:10464000FB681B6842F400721A6001232BE0FB88B0
:10465000012B05D13B89DAB2FB681B681A6121E0A6
:104660003B891B0A9BB2DAB2FB681B681A617A6A43
:10467000396AF86800F09CF90346002B0DD0FB68FE
:104680001B6C042B07D1FB681B681A68FB681B684E
:1046900042F400721A60012305E03B89DAB2FB683C
:1046A0001B681A61002318461837BD4680BD00BF3D
:1046B0000200010080B586B000AF78600023FB6087
:1046C0007B685B6A7B617B6993F83D30FB744B4B85
:1046D0001B68DB084A4AA2FB03231A0A13469B0005
:1046E0001344DA00D31AFB60FB68002B06D17B6908
:1046F0001B6C43F020027B691A640AE0FB68013BF3
:10470000FB607B691B681B6803F40073B3F5007FD3
:10471000EAD07B695B6B002B03D07B695B6B00226B
:104720009A627B699B6B002B03D07B699B6B002299
:104730009A627B691B681A687B691B6822F4806235
:104740001A607B6900225A857B695B6B002B03D062
:104750007B695B6B00225A637B699B6B002B03D0E8
:104760007B699B6B00225A637B691B681A687B69B3
:104770001B6822F001021A607B6993F83D30DBB2BE
:10478000602B0ED17B69202283F83D207B690022BB
:1047900083F83E207B6900221A647869FEF7F8FDF1
:1047A00027E0FB7C03F02803282B17D17B691B68CB
:1047B0001A687B691B6842F001021A607B691B68FA
:1047C0001A687B691B6842F480621A607B69002268
:1047D0001A637B69282283F83D2007E07B69202249
:1047E00083F83D207B69002283F83E207869FEF73C
:1047F000C6FD00BF1837BD4680BD00BF00000020C9
:1048000089B5F81480B584B000AFF860B9603B603A
:104810001346FB7125E03B68B3F1FF3F21D0FDF764
:104820001FFE0246BB69D31A3A689A4202D33B681C
:10483000002B16D1FB6800221A63FB68202283F844
:104840003D20FB68002283F83E20FB681B6C43F090
:104850002002FB681A64FB68002283F83C200123D5
:1048600023E0BB681B0CDBB2012B0DD1FB681B687E
:104870005B69DA43BB6813409BB2002B0CBF01237A
:104880000023DBB21A460CE0FB681B689B69DA4325
:10489000BB6813409BB2002B0CBF01230023DBB28B
:1048A0001A46FB799A42B6D0002318461037BD4607
:1048B00080BD80B584B000AFF860B9607A603B60BD
:1048C00051E0FB681B685B6903F48063B3F5806F9C
:1048D00023D1FB681B681A68FB681B6842F40072EE
:1048E0001A60FB681B686FF480625A61FB680022E3
:1048F0001A63FB68202283F83D20FB68002283F8BE
:104900003E20FB681B6C43F00402FB681A64FB68E2
:10491000002283F83C20012346E07B68B3F1FF3F8F
:1049200021D0FDF79DFD02463B68D31A7A689A4272
:1049300002D37B68002B16D1FB6800221A63FB6848
:10494000202283F83D20FB68002283F83E20FB688C
:104950001B6C43F02002FB681A64FB68002283F89A
:104960003C20012320E0BB681B0CDBB2012B0CD1E7
:10497000FB681B685B69DA43BB6813409BB2002B82
:1049800014BF01230023DBB20BE0FB681B689B69AB
:10499000DA43BB6813409BB2002B14BF01230023F2
:1049A000DBB2002B8DD1002318461037BD4680BDE9
:1049B00080B584B000AFF860B9607A602DE0F86827
:1049C00000F0AAF80346002B01D001232DE0BB68BC
:1049D000B3F1FF3F21D0FDF743FD02467B68D31AB8
:1049E000BA689A4202D3BB68002B16D1FB6800223A
:1049F0001A63FB68202283F83D20FB68002283F8BD
:104A00003E20FB681B6C43F02002FB681A64FB68C5
:104A1000002283F83C20012307E0FB681B685B69E8
:104A200003F08003802BCAD1002318461037BD46FF
:104A300080BD80B584B000AFF860B9607A602DE0C9
:104A4000F86800F069F80346002B01D001232DE03F
:104A5000BB68B3F1FF3F21D0FDF702FD02467B6842
:104A6000D31ABA689A4202D3BB68002B16D1FB68EE
:104A700000221A63FB68202283F83D20FB68002295
:104A800083F83E20FB681B6C43F02002FB681A642D
:104A9000FB68002283F83C20012307E0FB681B68C9
:104AA0005B6903F00403042BCAD1002318461037B6
:104AB000BD4680BD80B485B000AF78600023FB6048
:104AC000134B1B68DB08134AA2FB03231A0A134685
:104AD0009B001344FB60FB68013BFB60FB68002B01
:104AE00007D17B681B6C43F020027B681A640123AA
:104AF00008E07B681B681B6803F40073B3F5007F54
:104B0000E9D0002318461437BD4680BC704700BF6B
:104B10000000002089B5F81480B483B000AF78603D
:104B20007B681B685B6903F48063B3F5806F1BD1FE
:104B30007B681B686FF480625A617B6800221A638D
:104B40007B68202283F83D207B68002283F83E208A
:104B50007B681B6C43F004027B681A647B6800224C
:104B600083F83C20012300E0002318460C37BD46A3
:104B700080BC704780B483B000AF78607B68DB6A2C
:104B8000B3F52A0F03D17B680122DA6207E07B6864
:104B9000DB6AB3F12A4F02D17B680822DA6200BFD8
:104BA0000C37BD4680BC704780B586B000AF7860DA
:104BB0007B68002B01D1012372E27B681B6803F044
:104BC0000103002B00F08780924B5B6803F00C031D
:104BD000042B0CD08F4B5B6803F00C03082B12D115
:104BE0008C4B5B6803F48033B3F5803F0BD1894B6A
:104BF0001B6803F40033002B6CD07B685B68002BD0
:104C000068D101234CE27B685B68B3F5803F06D135
:104C1000804B1B687F4A43F4803313602EE07B682F
:104C20005B68002B0CD17B4B1B687A4A23F48033E2
:104C30001360784B1B68774A23F4802313601DE0D0
:104C40007B685B68B3F5A02F0CD1724B1B68714A6F
:104C500043F4802313606F4B1B686E4A43F4803328
:104C600013600BE06B4B1B686A4A23F480331360BC
:104C7000684B1B68674A23F4802313607B685B687A
:104C8000002B13D0FDF7ECFB386108E0FDF7E8FBE3
:104C900002463B69D31A642B01D9032300E25D4B22
:104CA0001B6803F40033002BF0D014E0FDF7D8FBB1
:104CB000386108E0FDF7D4FB02463B69D31A642B48
:104CC00001D90323ECE1534B1B6803F40033002BA1
:104CD000F0D100E000BF7B681B6803F00203002BEB
:104CE00063D04C4B5B6803F00C03002B0BD0494B9B
:104CF0005B6803F00C03082B1CD1464B5B6803F484
:104D00008033002B16D1434B1B6803F00203002BAA
:104D100005D07B681B69012B01D00123C0E13D4B0D
:104D20001B6823F0F8027B685B69DB003949134399
:104D30000B603AE07B681B69002B20D0364B0122C8
:104D40001A60FDF78DFB386108E0FDF789FB02462C
:104D50003B69D31A022B01D90323A1E12D4B1B6818
:104D600003F00203002BF0D02A4B1B6823F0F8025B
:104D70007B685B69DB00274913430B6015E0264B1A
:104D800000221A60FDF76CFB386108E0FDF768FB54
:104D900002463B69D31A022B01D9032380E11D4B44
:104DA0001B6803F00203002BF0D17B681B6803F043
:104DB0000803002B3AD07B689B69002B19D0174B56
:104DC00001221A60FDF74CFB386108E0FDF748FB53
:104DD00002463B69D31A022B01D9032360E10D4B34
:104DE0005B6A03F00203002BF0D0012000F0D8FA38
:104DF0001CE00A4B00221A60FDF732FB38610FE01D
:104E0000FDF72EFB02463B69D31A022B08D9032378
:104E100046E100BF001002400000424280044242CE
:104E2000924B5B6A03F00203002BE9D17B681B689D
:104E300003F00403002B00F0A6800023FB758B4BCE
:104E4000DB6903F08053002B0DD1884BDB69874A67
:104E500043F08053D361854BDB6903F08053BB6023
:104E6000BB680123FB75824B1B6803F48073002B26
:104E700018D17F4B1B687E4A43F480731360FDF7A3
:104E8000EFFA386108E0FDF7EBFA02463B69D31A06
:104E9000642B01D9032303E1754B1B6803F4807372
:104EA000002BF0D07B68DB68012B06D16F4B1B6AAF
:104EB0006E4A43F0010313622DE07B68DB68002B30
:104EC0000CD16A4B1B6A694A23F001031362674BDA
:104ED0001B6A664A23F0040313621CE07B68DB68EC
:104EE000052B0CD1614B1B6A604A43F0040313622B
:104EF0005E4B1B6A5D4A43F0010313620BE05B4BA0
:104F00001B6A5A4A23F001031362584B1B6A574A23
:104F100023F0040313627B68DB68002B15D0FDF7D8
:104F20009FFA38610AE0FDF79BFA02463B69D31A03
:104F300041F28832934201D90323B1E04B4B1B6A03
:104F400003F00203002BEED014E0FDF789FA38617C
:104F50000AE0FDF785FA02463B69D31A41F288322E
:104F6000934201D903239BE0404B1B6A03F00203E9
:104F7000002BEED1FB7D012B05D13C4BDB693B4A7D
:104F800023F08053D3617B68DB69002B00F08780BE
:104F9000364B5B6803F00C03082B61D07B68DB6940
:104FA000022B46D1334B00221A60FDF759FA3861C3
:104FB00008E0FDF755FA02463B69D31A022B01D9E6
:104FC00003236DE0294B1B6803F00073002BF0D125
:104FD0007B681B6AB3F5803F08D1244B5B6823F4E0
:104FE00000327B689B68214913434B601F4B5B6811
:104FF00023F474127B68196A7B685B6A0B431B4954
:1050000013434B601B4B01221A60FDF729FA3861EC
:1050100008E0FDF725FA02463B69D31A022B01D9B5
:1050200003233DE0114B1B6803F00073002BF0D00D
:1050300035E0104B00221A60FDF712FA386108E0E3
:10504000FDF70EFA02463B69D31A022B01D903235E
:1050500026E0064B1B6803F00073002BF0D11EE026
:105060007B68DB69012B07D1012319E000100240A6
:1050700000700040600042420B4B5B68FB60FB68C5
:1050800003F480327B681B6A9A4206D1FB6803F402
:1050900070127B685B6A9A4201D0012300E0002312
:1050A00018461837BD4680BD0010024080B584B058
:1050B00000AF786039607B68002B01D10123D0E01C
:1050C0006A4B1B6803F007033A689A4210D9674B92
:1050D0001B6823F0070265493B6813430B60634B71
:1050E0001B6803F007033A689A4201D00123B8E035
:1050F0007B681B6803F00203002B20D07B681B68D1
:1051000003F00403002B05D0594B5B68584A43F465
:10511000E06353607B681B6803F00803002B05D035
:10512000534B5B68524A43F460535360504B5B6887
:1051300023F0F0027B689B684D4913434B607B680A
:105140001B6803F00103002B40D07B685B68012BD8
:1051500007D1474B1B6803F40033002B15D1012303
:105160007FE07B685B68022B07D1414B1B6803F033
:105170000073002B09D1012373E03D4B1B6803F042
:105180000203002B01D101236BE0394B5B6823F054
:1051900003027B685B68364913434B60FDF760F997
:1051A000F8600AE0FDF75CF90246FB68D31A41F2A9
:1051B0008832934201D9032353E02D4B5B6803F0FF
:1051C0000C027B685B689B009A42EBD1274B1B6803
:1051D00003F007033A689A4210D2244B1B6823F06D
:1051E000070222493B6813430B60204B1B6803F006
:1051F00007033A689A4201D0012332E07B681B68BA
:1052000003F00403002B08D0194B5B6823F4E06221
:105210007B68DB68164913434B607B681B6803F0AF
:105220000803002B09D0124B5B6823F460527B68A3
:105230001B69DB000E4913434B6000F021F8024666
:105240000B4B5B681B0903F00F030A49CB5C22FA86
:1052500003F3094A1360094B1B681846FDF7D0F8A1
:10526000002318461037BD4680BD00BF0020024015
:1052700000100240E4C100080000002004000020EB
:1052800090B48AB000AF294B3C1D0FCB84E80F00CF
:1052900040F201233B800023FB610023BB6100231C
:1052A0007B6200237B6100233B62214B5B68FB61D7
:1052B000FB6903F00C03042B02D0082B03D02BE076
:1052C0001C4B3B622BE0FB699B0C03F00F03283364
:1052D0003B4413F8243C7B61FB6903F48033002BCF
:1052E00012D0134B5B685B0C03F0010328333B4483
:1052F00013F8283CBB617B690E4A03FB02F2BB69D1
:10530000B2FBF3F37B6204E07B690B4A02FB03F31D
:105310007B627B6A3B6202E0064B3B6200BF3B6AFA
:1053200018462837BD4690BC704700BFD4C100085E
:105330000010024000127A0000093D0080B400AF66
:10534000024B1B681846BD4680BC70470000002019
:1053500080B500AFFFF7F2FF0246054B5B681B0A02
:1053600003F007030349CB5C22FA03F3184680BD20
:1053700000100240F4C1000880B500AFFFF7DEFF67
:105380000246054B5B68DB0A03F007030349CB5C6D
:1053900022FA03F3184680BD00100240F4C1000851
:1053A00080B485B000AF78600A4B1B680A4AA2FB44
:1053B00003235B0A7A6802FB03F3FB6000BFFB6810
:1053C0005A1EFA60002BF9D100BF00BF1437BD464A
:1053D00080BC704700000020D34D621080B582B0C1
:1053E00000AF78607B68002B01D1012376E07B68F9
:1053F0005B6A002B08D17B685B68B3F5827F09D0BC
:105400007B680022DA6105E07B6800221A617B6814
:1054100000225A617B6800229A627B6893F85130BF
:10542000DBB2002B06D17B68002283F8502078681D
:10543000FCF7ACF97B68022283F851207B681B687B
:105440001A687B681B6822F040021A607B685B6800
:1054500003F482727B689B6803F404431A437B68FD
:10546000DB6803F400631A437B681B6903F00203E3
:105470001A437B685B6903F001031A437B689B69ED
:1054800003F400731A437B68DB6903F038031A43A3
:105490007B681B6A03F0800342EA03017B689B6A16
:1054A00003F400527B681B680A431A607B689B699F
:1054B0001A0C7B681B6802F004025A607B681B6848
:1054C000DA697B681B6822F40062DA617B6800227B
:1054D0005A657B68012283F851200023184608375B
:1054E000BD4680BD80B582B000AF78607B68002B80
:1054F00001D1012341E07B6893F83D30DBB2002B02
:1055000006D17B68002283F83C207868FCF702FE15
:105510007B68022283F83D207B681A687B6804332D
:105520001946104600F0ACFF7B68012283F8462044
:105530007B68012283F83E207B68012283F83F20AC
:105540007B68012283F840207B68012283F8412098
:105550007B68012283F842207B68012283F8432084
:105560007B68012283F844207B68012283F8452070
:105570007B68012283F83D20002318460837BD468A
:1055800080BD000080B584B000AF786039603B68B2
:10559000002B09D17B6893F83E30DBB2012B14BF9E
:1055A00001230023DBB222E03B68042B09D17B6896
:1055B00093F83F30DBB2012B14BF01230023DBB291
:1055C00015E03B68082B09D17B6893F84030DBB2CB
:1055D000012B14BF01230023DBB208E07B6893F8A2
:1055E0004130DBB2012B14BF01230023DBB2002BBF
:1055F00001D00123A4E03B68002B04D17B68022288
:1056000083F83E2013E03B68042B04D17B68022220
:1056100083F83F200BE03B68082B04D17B68022213
:1056200083F8402003E07B68022283F841203B6836
:105630000C2B41D801A252F823F000BF715600088C
:10564000B9560008B9560008B95600088356000834
:10565000B9560008B9560008B95600089556000812
:10566000B9560008B9560008B9560008A7560008F0
:105670007B681B68DA687B681B6842F00202DA60AC
:105680001BE07B681B68DA687B681B6842F00402D9
:10569000DA6012E07B681B68DA687B681B6842F09E
:1056A0000802DA6009E07B681B68DA687B681B68BF
:1056B00042F01002DA6000E000BF7B681B68012244
:1056C0003968184601F05CF97B681B681E4A9342F2
:1056D00007D17B681B685A6C7B681B6842F40042E8
:1056E0005A647B681B68184A93420ED07B681B681B
:1056F000B3F1804F09D07B681B68144A934204D0F1
:105700007B681B68124A934211D17B681B689B68B7
:1057100003F00703FB60FB68062B10D07B681B6857
:105720001A687B681B6842F001021A6007E07B6818
:105730001B681A687B681B6842F001021A6000232C
:1057400018461037BD4680BD002C014000040040C3
:105750000008004080B582B000AF78607B68002B05
:1057600001D1012341E07B6893F83D30DBB2002B8F
:1057700006D17B68002283F83C207868FCF716FC91
:105780007B68022283F83D207B681A687B680433BB
:105790001946104600F074FE7B68012283F846200B
:1057A0007B68012283F83E207B68012283F83F203A
:1057B0007B68012283F840207B68012283F8412026
:1057C0007B68012283F842207B68012283F8432012
:1057D0007B68012283F844207B68012283F84520FE
:1057E0007B68012283F83D20002318460837BD4618
:1057F00080BD000080B584B000AF786039603B6840
:10580000002B09D17B6893F83E30DBB2012B14BF2B
:1058100001230023DBB222E03B68042B09D17B6823
:1058200093F83F30DBB2012B14BF01230023DBB21E
:1058300015E03B68082B09D17B6893F84030DBB258
:10584000012B14BF01230023DBB208E07B6893F82F
:105850004130DBB2012B14BF01230023DBB2002B4C
:1058600001D00123A4E03B68002B04D17B68022215
:1058700083F83E2013E03B68042B04D17B680222AE
:1058800083F83F200BE03B68082B04D17B680222A1
:1058900083F8402003E07B68022283F841203B68C4
:1058A0000C2B41D801A252F823F000BFE1580008A8
:1058B000295900082959000829590008F3580008F7
:1058C00029590008295900082959000805590008D4
:1058D00029590008295900082959000817590008B2
:1058E0007B681B68DA687B681B6842F00202DA603A
:1058F0001BE07B681B68DA687B681B6842F0040267
:10590000DA6012E07B681B68DA687B681B6842F02B
:105910000802DA6009E07B681B68DA687B681B684C
:1059200042F01002DA6000E000BF7B681B680122D1
:105930003968184601F024F87B681B681E4A9342B8
:1059400007D17B681B685A6C7B681B6842F4004275
:105950005A647B681B68184A93420ED07B681B68A8
:10596000B3F1804F09D07B681B68144A934204D07E
:105970007B681B68124A934211D17B681B689B6845
:1059800003F00703FB60FB68062B10D07B681B68E5
:105990001A687B681B6842F001021A6007E07B68A6
:1059A0001B681A687B681B6842F001021A600023BA
:1059B00018461037BD4680BD002C01400004004051
:1059C0000008004080B582B000AF786039603B6865
:1059D0000C2B41D801A252F823F000BF115A000845
:1059E000595A0008595A0008595A0008235A000801
:1059F000595A0008595A0008595A0008355A0008DF
:105A0000595A0008595A0008595A0008475A0008BC
:105A10007B681B68DA687B681B6822F00202DA6028
:105A20001BE07B681B68DA687B681B6822F0040255
:105A3000DA6012E07B681B68DA687B681B6822F01A
:105A40000802DA6009E07B681B68DA687B681B681B
:105A500022F01002DA6000E000BF7B681B680022C1
:105A60003968184600F08CFF7B681B68294A93420E
:105A700017D17B681B681A6A41F211131340002B7F
:105A80000FD17B681B681A6A40F244431340002B15
:105A900007D17B681B685A6C7B681B6822F4004244
:105AA0005A647B681B681A6A41F211131340002B79
:105AB0000FD17B681B681A6A40F244431340002BE5
:105AC00007D17B681B681A687B681B6822F001029B
:105AD0001A603B68002B04D17B68012283F83E20CA
